{
    "_format": "hh-sol-artifact-1",
    "contractName": "SuperAuction",
    "sourceName": "contracts/SuperAuction.sol",
    "abi": [
        {
            "inputs": [],
            "stateMutability": "nonpayable",
            "type": "constructor"
        },
        {
            "anonymous": false,
            "inputs": [
                {
                    "indexed": false,
                    "internalType": "uint256",
                    "name": "productId",
                    "type": "uint256"
                },
                {
                    "indexed": false,
                    "internalType": "uint256",
                    "name": "bidAmount",
                    "type": "uint256"
                },
                {
                    "indexed": false,
                    "internalType": "address",
                    "name": "owner",
                    "type": "address"
                }
            ],
            "name": "BidNotAccepted",
            "type": "event"
        },
        {
            "anonymous": false,
            "inputs": [
                {
                    "indexed": false,
                    "internalType": "uint256",
                    "name": "productId",
                    "type": "uint256"
                }
            ],
            "name": "BiddingEnded",
            "type": "event"
        },
        {
            "anonymous": false,
            "inputs": [
                {
                    "indexed": false,
                    "internalType": "uint256",
                    "name": "productId",
                    "type": "uint256"
                }
            ],
            "name": "BiddingStarted",
            "type": "event"
        },
        {
            "anonymous": false,
            "inputs": [
                {
                    "indexed": false,
                    "internalType": "uint256",
                    "name": "productId",
                    "type": "uint256"
                },
                {
                    "indexed": false,
                    "internalType": "address",
                    "name": "owner",
                    "type": "address"
                }
            ],
            "name": "ClaimSuccess",
            "type": "event"
        },
        {
            "anonymous": false,
            "inputs": [
                {
                    "indexed": false,
                    "internalType": "uint256",
                    "name": "productId",
                    "type": "uint256"
                },
                {
                    "indexed": false,
                    "internalType": "uint256",
                    "name": "bidAmount",
                    "type": "uint256"
                },
                {
                    "indexed": false,
                    "internalType": "address",
                    "name": "owner",
                    "type": "address"
                }
            ],
            "name": "NewWinningBid",
            "type": "event"
        },
        {
            "inputs": [
                {
                    "internalType": "uint256",
                    "name": "initPrice",
                    "type": "uint256"
                },
                {
                    "internalType": "address",
                    "name": "seller",
                    "type": "address"
                },
                {
                    "internalType": "string",
                    "name": "url",
                    "type": "string"
                },
                {
                    "internalType": "uint256",
                    "name": "bidStart",
                    "type": "uint256"
                },
                {
                    "internalType": "uint256",
                    "name": "bidEnd",
                    "type": "uint256"
                }
            ],
            "name": "addProduct",
            "outputs": [],
            "stateMutability": "nonpayable",
            "type": "function"
        },
        {
            "inputs": [
                {
                    "internalType": "uint256",
                    "name": "productId",
                    "type": "uint256"
                },
                {
                    "internalType": "uint256",
                    "name": "bidAmount",
                    "type": "uint256"
                }
            ],
            "name": "bid",
            "outputs": [
                {
                    "internalType": "bool",
                    "name": "",
                    "type": "bool"
                }
            ],
            "stateMutability": "nonpayable",
            "type": "function"
        },
        {
            "inputs": [],
            "name": "checkAuction",
            "outputs": [],
            "stateMutability": "nonpayable",
            "type": "function"
        },
        {
            "inputs": [
                {
                    "internalType": "uint256",
                    "name": "productId",
                    "type": "uint256"
                }
            ],
            "name": "checkWinningBid",
            "outputs": [
                {
                    "components": [
                        {
                            "internalType": "uint256",
                            "name": "bidAmount",
                            "type": "uint256"
                        },
                        {
                            "internalType": "address",
                            "name": "owner",
                            "type": "address"
                        }
                    ],
                    "internalType": "struct SuperAuction.Bidder",
                    "name": "",
                    "type": "tuple"
                }
            ],
            "stateMutability": "view",
            "type": "function"
        },
        {
            "inputs": [
                {
                    "internalType": "uint256",
                    "name": "productId",
                    "type": "uint256"
                }
            ],
            "name": "claimProduct",
            "outputs": [
                {
                    "internalType": "string",
                    "name": "",
                    "type": "string"
                }
            ],
            "stateMutability": "payable",
            "type": "function"
        },
        {
            "inputs": [
                {
                    "internalType": "uint256",
                    "name": "productId",
                    "type": "uint256"
                }
            ],
            "name": "getHighestBid",
            "outputs": [
                {
                    "components": [
                        {
                            "internalType": "uint256",
                            "name": "bidAmount",
                            "type": "uint256"
                        },
                        {
                            "internalType": "address",
                            "name": "owner",
                            "type": "address"
                        }
                    ],
                    "internalType": "struct SuperAuction.Bidder",
                    "name": "",
                    "type": "tuple"
                }
            ],
            "stateMutability": "view",
            "type": "function"
        },
        {
            "inputs": [],
            "name": "getNextId",
            "outputs": [
                {
                    "internalType": "uint256",
                    "name": "",
                    "type": "uint256"
                }
            ],
            "stateMutability": "view",
            "type": "function"
        },
        {
            "inputs": [
                {
                    "internalType": "uint256",
                    "name": "productId",
                    "type": "uint256"
                }
            ],
            "name": "getProductById",
            "outputs": [
                {
                    "components": [
                        {
                            "internalType": "uint256",
                            "name": "id",
                            "type": "uint256"
                        },
                        {
                            "internalType": "uint256",
                            "name": "initialPrice",
                            "type": "uint256"
                        },
                        {
                            "internalType": "address",
                            "name": "seller",
                            "type": "address"
                        },
                        {
                            "internalType": "string",
                            "name": "url",
                            "type": "string"
                        },
                        {
                            "internalType": "uint256",
                            "name": "bidStart",
                            "type": "uint256"
                        },
                        {
                            "internalType": "uint256",
                            "name": "bidEnd",
                            "type": "uint256"
                        }
                    ],
                    "internalType": "struct SuperAuction.AuctionProduct",
                    "name": "",
                    "type": "tuple"
                }
            ],
            "stateMutability": "view",
            "type": "function"
        },
        {
            "inputs": [
                {
                    "internalType": "uint256",
                    "name": "productId",
                    "type": "uint256"
                }
            ],
            "name": "getProductUrl",
            "outputs": [
                {
                    "internalType": "string",
                    "name": "",
                    "type": "string"
                }
            ],
            "stateMutability": "view",
            "type": "function"
        },
        {
            "inputs": [],
            "name": "isAdmin",
            "outputs": [
                {
                    "internalType": "bool",
                    "name": "",
                    "type": "bool"
                }
            ],
            "stateMutability": "view",
            "type": "function"
        }
    ],
    "bytecode": "0x6080604052600160045534801561001557600080fd5b506001600055600580546001600160a01b0319163317905560408051808201909152601381527f626c6f636b2e74696d657374616d70206973200000000000000000000000000060208083019190915261007991904290610d9b61007e821b17901c565b610149565b6100c782826040516024016100949291906100ec565b60408051601f198184030181529190526020810180516001600160e01b039081166309710a9d60e41b179091526100cb16565b5050565b80516a636f6e736f6c652e6c6f67602083016000808483855afa5050505050565b604081526000835180604084015260005b8181101561011a57602081870181015160608684010152016100fd565b8181111561012c576000606083860101525b50602083019390935250601f91909101601f191601606001919050565b611153806101586000396000f3fe6080604052600436106100815760003560e01c80633f70c2b41461008657806346969b1d146100bc578063598647f8146101425780636604a1f6146101725780638f288644146100bc578063a741b9c914610194578063b6db75a0146101c1578063bb1ab0f5146101e2578063bc968326146101f5578063f109c67d14610213575b600080fd5b34801561009257600080fd5b506100a66100a1366004610e9e565b610228565b6040516100b39190610f04565b60405180910390f35b3480156100c857600080fd5b5061011e6100d7366004610e9e565b604080518082019091526000808252602082015250600090815260026020908152604091829020825180840190935280548352600101546001600160a01b03169082015290565b60408051825181526020928301516001600160a01b031692810192909252016100b3565b34801561014e57600080fd5b5061016261015d366004610f66565b6102e1565b60405190151581526020016100b3565b34801561017e57600080fd5b5061019261018d366004610f88565b610587565b005b3480156101a057600080fd5b506101b46101af366004610e9e565b6106e4565b6040516100b3919061102f565b3480156101cd57600080fd5b506101626005546001600160a01b0316331490565b6101b46101f0366004610e9e565b610838565b34801561020157600080fd5b506004546040519081526020016100b3565b34801561021f57600080fd5b50610192610bef565b61026a6040518060c00160405280600081526020016000815260200160006001600160a01b031681526020016060815260200160008152602001600081525090565b506040805160c08101825260008381526001602081815284832080548552808301548286015260028101546001600160a01b031685870152855180870190965260068652652424a22222a760d11b86830152606085019590955260048501546080850152949091529092526005015460a082015290565b60006103146040518060400160405280600f81526020016e0626c6f636b2e74696d657374616d7608c1b81525042610d9b565b600454831061036a5760405162461bcd60e51b815260206004820152601d60248201527f41756374696f6e50726f6475637420646f6573206e6f7420657869737400000060448201526064015b60405180910390fd5b6103be6040518060400160405280601c81526020017b1c1c9bd91d58dd1cd6dc1c9bd91d58dd1259174b989a5914dd185c9d60221b8152506001600086815260200190815260200160002060040154610d9b565b60008381526001602052604090206004015442116104185760405162461bcd60e51b8152602060048201526017602482015276109a59191a5b99c81b9bdd081e595d081cdd185c9d1959604a1b6044820152606401610361565b600083815260016020526040902060050154421061046c5760405162461bcd60e51b8152602060048201526011602482015270109a59191a5b99c81a185cc8195b991959607a1b6044820152606401610361565b600083815260026020908152604091829020825180840190935280548084526001909101546001600160a01b03169183019190915215806104ad5750805183115b156105405760408051808201825284815233602080830182815260008981526002909252908490209251835551600190920180546001600160a01b0319166001600160a01b039093169290921790915590517f1d9cad4a212ff8a378361a9b0eaabdee479b9904e883926b9605871b72c3614e9161052e9187918791611049565b60405180910390a16001915050610581565b7fdf3b30316c2d1c1526d3ac123a4715fca8b7d342d54df5dcd141e6a9ab05ea4684843360405161057393929190611049565b60405180910390a160009150505b92915050565b6005546001600160a01b031633146105e15760405162461bcd60e51b815260206004820152601e60248201527f4f6e6c792041646d696e2063616e206f706572617465207468697320666e00006044820152606401610361565b6040518060c001604052806004548152602001878152602001866001600160a01b0316815260200185858080601f0160208091040260200160405190810160405280939291908181526020018383808284376000920182905250938552505050602080830186905260409283018590526004548252600180825291839020845181558482015192810192909255918301516002820180546001600160a01b0319166001600160a01b039092169190911790556060830151805191926106ae92600385019290910190610e05565b50608082015160048083019190915560a09092015160059091015580549060006106d783611068565b9190505550505050505050565b6000818152600260205260409020600101546060906001600160a01b031633146107205760405162461bcd60e51b815260040161036190611091565b60008281526003602052604090205460ff1615156001146107975760405162461bcd60e51b815260206004820152602b60248201527f4e6f742079657420636c61696d65642e204578656375746520636c61696d507260448201526a1bd91d58dd08199a5c9cdd60aa1b6064820152608401610361565b600082815260016020526040902060030180546107b3906110c0565b80601f01602080910402602001604051908101604052809291908181526020018280546107df906110c0565b801561082c5780601f106108015761010080835404028352916020019161082c565b820191906000526020600020905b81548152906001019060200180831161080f57829003601f168201915b50505050509050919050565b60606002600054141561088d5760405162461bcd60e51b815260206004820152601f60248201527f5265656e7472616e637947756172643a207265656e7472616e742063616c6c006044820152606401610361565b6002600081815583815260209190915260409020600101546001600160a01b031633146108cc5760405162461bcd60e51b815260040161036190611091565b60008281526001602052604090206005015442116109245760405162461bcd60e51b8152602060048201526015602482015274109a59191a5b99c81b9bdd081e595d08195b991959605a1b6044820152606401610361565b60008281526003602052604090205460ff16156109765760405162461bcd60e51b815260206004820152601060248201526f12185cc81899595b8818db185a5b595960821b6044820152606401610361565b6109a1604051806040016040528060098152602001686d73672e76616c756560b81b81525034610d9b565b6109e260405180604001604052806009815260200168189a59105b5bdd5b9d60ba1b8152506002600085815260200190815260200160002060000154610d9b565b600082815260026020526040902054341015610a3b5760405162461bcd60e51b8152602060048201526018602482015277125b9cdd59999a58da595b9d08185b5bdd5b9d081c185a5960421b6044820152606401610361565b6000828152600160205260408082206002015490516001600160a01b039091169034908381818185875af1925050503d8060008114610a96576040519150601f19603f3d011682016040523d82523d6000602084013e610a9b565b606091505b5050905080610ae35760405162461bcd60e51b81526020600482015260146024820152732330b4b632b2103a379039b2b7321022ba3432b960611b6044820152606401610361565b60008381526003602052604090819020805460ff19166001179055517f15dfdba51e5771332c8a1b4e025ec218e26c413653d465385ecd432b1ea562cd90610b4090859033909182526001600160a01b0316602082015260400190565b60405180910390a160008381526001602052604090206003018054610b64906110c0565b80601f0160208091040260200160405190810160405280929190818152602001828054610b90906110c0565b8015610bdd5780601f10610bb257610100808354040283529160200191610bdd565b820191906000526020600020905b815481529060010190602001808311610bc057829003601f168201915b50505050509150506001600055919050565b60015b600454811015610d98576000818152600160208181526040808420815160c08101835281548152938101549284019290925260028201546001600160a01b031690830152600381018054606084019190610c4b906110c0565b80601f0160208091040260200160405190810160405280929190818152602001828054610c77906110c0565b8015610cc45780601f10610c9957610100808354040283529160200191610cc4565b820191906000526020600020905b815481529060010190602001808311610ca757829003601f168201915b50505050508152602001600482015481526020016005820154815250509050806080015142118015610cf957508060a0015142105b15610d36576040518281527ff61f665821a6e659adf0bad13ec424331cf7c587da692f5383c832355d5ef6209060200160405180910390a1610d85565b806080015142118015610d4c57508060a0015142115b15610d85576040518281527f937e8c8efc560f43de03b7a2e5eda6c2ef24fef8391e6e3b3a4ec40725b185409060200160405180910390a15b5080610d9081611068565b915050610bf2565b50565b610de08282604051602401610db19291906110fb565b60408051601f198184030181529190526020810180516001600160e01b03166309710a9d60e41b179052610de4565b5050565b80516a636f6e736f6c652e6c6f67602083016000808483855afa5050505050565b828054610e11906110c0565b90600052602060002090601f016020900481019282610e335760008555610e79565b82601f10610e4c57805160ff1916838001178555610e79565b82800160010185558215610e79579182015b82811115610e79578251825591602001919060010190610e5e565b50610e85929150610e89565b5090565b5b80821115610e855760008155600101610e8a565b600060208284031215610eb057600080fd5b5035919050565b6000815180845260005b81811015610edd57602081850181015186830182015201610ec1565b81811115610eef576000602083870101525b50601f01601f19169290920160200192915050565b60208152815160208201526020820151604082015260018060a01b0360408301511660608201526000606083015160c06080840152610f4660e0840182610eb7565b9050608084015160a084015260a084015160c08401528091505092915050565b60008060408385031215610f7957600080fd5b50508035926020909101359150565b60008060008060008060a08789031215610fa157600080fd5b8635955060208701356001600160a01b0381168114610fbf57600080fd5b9450604087013567ffffffffffffffff80821115610fdc57600080fd5b818901915089601f830112610ff057600080fd5b813581811115610fff57600080fd5b8a602082850101111561101157600080fd5b979a9699505060200196606081013595608090910135945092505050565b6020815260006110426020830184610eb7565b9392505050565b92835260208301919091526001600160a01b0316604082015260600190565b600060001982141561108a57634e487b7160e01b600052601160045260246000fd5b5060010190565b6020808252601590820152744f6e6c792077696e6e65722063616e20636c61696d60581b604082015260600190565b600181811c908216806110d457607f821691505b602082108114156110f557634e487b7160e01b600052602260045260246000fd5b50919050565b60408152600061110e6040830185610eb7565b9050826020830152939250505056fea26469706673582212205261d802327caa2d21faeb1c32ce89e150b766b35204d467056c7f00bd1c5c3a64736f6c63430008090033",
    "linkReferences": {},
    "deployedLinkReferences": {}
}